:0300000002089E55
:0C089E00787FE4F6D8FD758107020800A1
:10080000E4F5807580401208657580F912086575F9
:1008100080241208657580301208657580191208E9
:10082000657580121208657580021208657580F87A
:10083000120865E4F5801208657580181208657560
:1008400080081208657580031208657580461208D5
:100850006575802112086575800612086575800E21
:05086000120865809EF6
:10086500E4FFFE0FBF00010EBE75F8BF30F5E4FED4
:10087500FF0FBF00010EBE75F8BF30F5E4FEFF0F98
:10088500BF00010EBE75F8BF30F5E4FEFF0FBF00D7
:08089500010EBE75F8BF30F53D
:01089D002238
:00000001FF
