:03000000020800F3
:0C080000787FE4F6D8FD75810B020847F4
:08091C0002080000020A0001BC
:03092C00D28C2248
:03000B0002088C5C
:10088C00C0E0B2A0E5094508700D20A002803575C6
:10089C008C50758A37803BE50964014508700D2042
:1008AC00A0028020758C63758ABF8026E5096402DE
:1008BC004508700D20A002800B758CC5758A678069
:1008CC001120A008758CD8758AEF8006758CF6758A
:0508DC008A3BD0E03270
:0709250075890175A882220B
:1008E100E4F5A012092512092C85099020B215E51D
:1008F1000B450A600F0509E50970020508E4F50AD0
:10090100F50B800930B206750A00750B01E5096423
:0B09110003450870D4F508F50980CEFE
:10080C000208E1E493A3F8E493A34003F68001F219
:10081C0008DFF48029E493A3F85407240CC8C333ED
:10082C00C4540F4420C8834004F456800146F6DFBC
:10083C00E4800B010204081020408090091CE47E27
:10084C00019360BCA3FF543F30E509541FFEE493B1
:10085C00A360010ECF54C025E060A840B8E493A378
:10086C00FAE493A3F8E493A3C8C582C8CAC583CAA3
:10087C00F0A3C8C582C8CAC583CADFE9DEE780BE5B
:0109240000D2
:00000001FF
