:03000000020800F3
:0C080000787FE4F6D8FD758109020847F6
:0408C3000208000027
:0300030002088C64
:10088C00C0E0C0D07508007509000509E5097002C3
:10089C000508B4E8F5E508B403F0A2B4B392B4D0FB
:0408AC00D0D0E03296
:1008B000D2B2D2A0D2AFD2A820A004D2A180F9C2D5
:0308C000A180F51F
:10080C000208B0E493A3F8E493A34003F68001F24A
:10081C0008DFF48029E493A3F85407240CC8C333ED
:10082C00C4540F4420C8834004F456800146F6DFBC
:10083C00E4800B01020408102040809008C3E47E81
:10084C00019360BCA3FF543F30E509541FFEE493B1
:10085C00A360010ECF54C025E060A840B8E493A378
:10086C00FAE493A3F8E493A3C8C582C8CAC583CAA3
:10087C00F0A3C8C582C8CAC583CADFE9DEE780BE5B
:0108C7000030
:00000001FF
