:03000000020800F3
:0C080000787FE4F6D8FD75810B020847F4
:0808BF00020A0000020800001B
:0300030002088C64
:10088C00C0E0C0D0C3E509940FE5086480948050A3
:10089C000D0509E5097002050814F5908006750828
:0908AC0000750900D0D0D0E03243
:0A08B500D2B2D2AFD2A8D28880FEE2
:10080C000208B5E493A3F8E493A34003F68001F245
:10081C0008DFF48029E493A3F85407240CC8C333ED
:10082C00C4540F4420C8834004F456800146F6DFBC
:10083C00E4800B01020408102040809008BFE47E85
:10084C00019360BCA3FF543F30E509541FFEE493B1
:10085C00A360010ECF54C025E060A840B8E493A378
:10086C00FAE493A3F8E493A3C8C582C8CAC583CAA3
:10087C00F0A3C8C582C8CAC583CADFE9DEE780BE5B
:0108C7000030
:00000001FF
