:0300000002097E74
:0C097E00787FE4F6D8FD758107020800C0
:1008000020A2047F0180027F0020A1047E018002DB
:100810007E00EE5FFF20A3047E0180027E00EE5F7B
:100820006006D290C291802620A2047F0180027FC0
:100830000020A1047E0180027E00EE5FFF30A30451
:100840007E0180027E00EE5F6008C290D291C2926B
:10085000802830A2047F0180027F0020A1047E0155
:1008600080027E00EE5FFF20A3047E0180027E00F6
:10087000EE5F600AC290C291D292C293802A30A2E7
:10088000047F0180027F0020A1047E0180027E009F
:10089000EE5FFF30A3047E0180027E00EE5F600CFD
:1008A000D290C291C292D293C294802C20A2047F93
:1008B0000180027F0030A1047E0180027E00EE5F95
:1008C000FF20A3047E0180027E00EE5F600EC290D6
:1008D000C291C292C293D294C295802E20A2047F6C
:1008E0000180027F0030A1047E0180027E00EE5F65
:1008F000FF30A3047E0180027E00EE5F6013C29091
:10090000C291C292C293C294D295C296C297020873
:100910000030A2047F0180027F0030A1047E0180AC
:10092000027E00EE5FFF20A3047E0180027E00EEC7
:100930005F6013C290C291C292C293C294C295D218
:1009400096C29702080030A2047F0180027F003027
:10095000A1047E0180027E00EE5FFF30A3047E01D1
:1009600080027E00EE5F7003020800C290C291C256
:0E09700092C293C294C295C296D2970208001A
:00000001FF
